S0130000636F75727365776F726B432E737265637A
S113000071C0000094C10000B4C1000082C00000AF
S113001080C000007EC000007CC000007AC00000E8
S113002078C0000076C0000074C0000072C00000F8
S113003070C000006EC000006CC000006AC0000008
S113004068C0000066C0000064C0000062C0000018
S113005060C000005EC000005CC000005AC0000028
S113006058C0000056C0000054C0000052C0000038
S113007050C000004EC000004CC000004AC0000048
S113008048C0000046C0000044C0000042C0000058
S113009040C000003EC000003CC000003AC0000068
S11300A038C0000036C0000034C0000032C0000078
S11300B030C000002EC000002CC000002AC0000088
S11300C028C0000026C0000024C0000022C0000098
S11300D020C000001EC000001CC000001AC00000A8
S11300E018C0000011241FBECFEFD1E2DEBFCDBF88
S11300F000E00CBF12E0A0E0B2E0ECE2F4E000E0CB
S11301000BBF02C007900D92A030B107D9F753D1AD
S11301108BC176CFE8E0F1E082E080832FE78AE1CB
S113012096E0215080409040E1F700C0000010822A
S11301300895E8E0F1E088E080832FE78AE196E023
S1130140215080409040E1F700C0000084E08083AB
S1130150108287EA91E60197F1F700C00000089544
S113016081B38E7F81BB83EC99E00197F1F700C0E6
S1130170000081B3816081BB83EC99E00197F1F7C2
S113018000C00000089580930201EADF81B38B7FF1
S113019081BB81EE94E00197F1F700C0000081B3C8
S11301A08D7F81BBDDCF089585EA9EE00197F1F74D
S11301B000C0000088E3E7DF81E0E5DF8FE0E3DFF4
S11301C086E0E1CF089580930201CADF81B38460A1
S11301D081BB81EE94E00197F1F700C0000081B388
S11301E08D7F81BBBDCF0895109208018FEF81BB35
S11301F0809302019FE09093040180930501D4DF72
S11302008FEF80930201E5E0F1E080838081877FB6
S113021080838091030184FD02C08BDF09C080913B
S1130220030185FD03C081E3CEDF02C08091030199
S1130230E5E0F1E08FEF808380818B7F8083809184
S1130240030184FF0AC08091030185FD04C085E099
S113025090E060DF02C080910301E5E0F1E08FEF00
S1130260808380818D7F80838091030184FF05C01A
S11302708091030185FD80910301E5E0F1E08FEFBA
S1130280808380818E7F80838091030184FFB8CF37
S11302908091030185FFB4CF80910301B1CF85B173
S11302A0816085B985EA9EE00197F1F700C00000FE
S11302B085B18E7F85B985EA9EE00197F1F700C08C
S11302C000000895CF93C82FEADF85B18B7F85B9ED
S11302D081EE94E00197F1F700C0000085B18D7FB5
S11302E085B9C2B9DCDFCF91089585EA9EE0019714
S11302F0F1F700C0000088E3E5DF81E0E3DF8FE091
S1130300E1DF86E0DFCF0895CF93C82FC8DF85B142
S1130310846085B981EE94E00197F1F700C0000094
S113032085B1826085B9C2B9BADFCF9108951F92B1
S11303300F920FB60F9211242F938F939F9381EEF8
S113034094E00197F1F700C000008FEF88B99FE7B0
S11303502AE186E0915020408040E1F700C000008F
S113036018B89F918F912F910F900FBE0F901F90EF
S113037018951F920F920FB60F9211242F938F93FB
S11303809F9381EE94E00197F1F700C000008FEF96
S113039088B99FE32DE083E0915020408040E1F74D
S11303A000C0000018B89F918F912F910F900FBE3D
S11303B00F901F9018958FEF80BB809301011AB89E
S11303C081B984B99FE0909304018093070187B9B0
S11303D078949DB393609DBBE9E6F0E090819A60C8
S11303E0908380930501109208011BB818B8FCDEB5
S11303F07CDF87E789DF03D081E60FD0FFCF10923F
S1130400C50083E38093C40088E18093C100E2ECDB
S1130410F0E086E08083808308959091C00095FF8A
S10F0420FCCF8093C6000895F894FFCF31
S9030000FC
